{
  "_format": "hh-sol-artifact-1",
  "contractName": "DrugSupplyChain",
  "sourceName": "contracts/DrugSupplyChain.sol",
  "abi": [
    {
      "anonymous": false,
      "inputs": [
        {
          "indexed": false,
          "internalType": "uint256",
          "name": "batchId",
          "type": "uint256"
        },
        {
          "indexed": false,
          "internalType": "string",
          "name": "name",
          "type": "string"
        },
        {
          "indexed": true,
          "internalType": "address",
          "name": "owner",
          "type": "address"
        }
      ],
      "name": "BatchCreated",
      "type": "event"
    },
    {
      "inputs": [],
      "name": "batchCount",
      "outputs": [
        {
          "internalType": "uint256",
          "name": "",
          "type": "uint256"
        }
      ],
      "stateMutability": "view",
      "type": "function"
    },
    {
      "inputs": [
        {
          "internalType": "uint256",
          "name": "",
          "type": "uint256"
        }
      ],
      "name": "batches",
      "outputs": [
        {
          "internalType": "string",
          "name": "name",
          "type": "string"
        },
        {
          "internalType": "string",
          "name": "description",
          "type": "string"
        },
        {
          "internalType": "uint256",
          "name": "mfgDate",
          "type": "uint256"
        },
        {
          "internalType": "uint256",
          "name": "expDate",
          "type": "uint256"
        },
        {
          "internalType": "address",
          "name": "owner",
          "type": "address"
        }
      ],
      "stateMutability": "view",
      "type": "function"
    },
    {
      "inputs": [
        {
          "internalType": "string",
          "name": "_name",
          "type": "string"
        },
        {
          "internalType": "string",
          "name": "_desc",
          "type": "string"
        },
        {
          "internalType": "uint256",
          "name": "_mfgDate",
          "type": "uint256"
        },
        {
          "internalType": "uint256",
          "name": "_expDate",
          "type": "uint256"
        }
      ],
      "name": "createBatch",
      "outputs": [],
      "stateMutability": "nonpayable",
      "type": "function"
    },
    {
      "inputs": [
        {
          "internalType": "uint256",
          "name": "_batchId",
          "type": "uint256"
        },
        {
          "internalType": "address",
          "name": "_to",
          "type": "address"
        }
      ],
      "name": "transferBatch",
      "outputs": [],
      "stateMutability": "nonpayable",
      "type": "function"
    }
  ],
  "bytecode": "0x6080604052600060015534801561001557600080fd5b50610cc7806100256000396000f3fe608060405234801561001057600080fd5b506004361061004c5760003560e01c806306f1305614610051578063621f2b0e1461006f5780636423867b1461008b578063b32c4d8d146100a7575b600080fd5b6100596100db565b60405161006691906104a6565b60405180910390f35b6100896004803603810190610084919061055f565b6100e1565b005b6100a560048036038101906100a091906106e5565b6101dc565b005b6100c160048036038101906100bc9190610784565b610327565b6040516100d295949392919061083f565b60405180910390f35b60015481565b60008083815260200190815260200160002060040160009054906101000a900473ffffffffffffffffffffffffffffffffffffffff1673ffffffffffffffffffffffffffffffffffffffff163373ffffffffffffffffffffffffffffffffffffffff1614610184576040517f08c379a000000000000000000000000000000000000000000000000000000000815260040161017b906108ec565b60405180910390fd5b8060008084815260200190815260200160002060040160006101000a81548173ffffffffffffffffffffffffffffffffffffffff021916908373ffffffffffffffffffffffffffffffffffffffff1602179055505050565b6040518060a001604052808581526020018481526020018381526020018281526020013373ffffffffffffffffffffffffffffffffffffffff16815250600080600154815260200190815260200160002060008201518160000190816102429190610b18565b5060208201518160010190816102589190610b18565b50604082015181600201556060820151816003015560808201518160040160006101000a81548173ffffffffffffffffffffffffffffffffffffffff021916908373ffffffffffffffffffffffffffffffffffffffff1602179055509050503373ffffffffffffffffffffffffffffffffffffffff167f195a26ecf0c9b8fb957ecc3a7c029ce84849279de600e16f205ee789052052b660015486604051610301929190610bea565b60405180910390a26001600081548092919061031c90610c49565b919050555050505050565b600060205280600052604060002060009150905080600001805461034a9061093b565b80601f01602080910402602001604051908101604052809291908181526020018280546103769061093b565b80156103c35780601f10610398576101008083540402835291602001916103c3565b820191906000526020600020905b8154815290600101906020018083116103a657829003601f168201915b5050505050908060010180546103d89061093b565b80601f01602080910402602001604051908101604052809291908181526020018280546104049061093b565b80156104515780601f1061042657610100808354040283529160200191610451565b820191906000526020600020905b81548152906001019060200180831161043457829003601f168201915b5050505050908060020154908060030154908060040160009054906101000a900473ffffffffffffffffffffffffffffffffffffffff16905085565b6000819050919050565b6104a08161048d565b82525050565b60006020820190506104bb6000830184610497565b92915050565b6000604051905090565b600080fd5b600080fd5b6104de8161048d565b81146104e957600080fd5b50565b6000813590506104fb816104d5565b92915050565b600073ffffffffffffffffffffffffffffffffffffffff82169050919050565b600061052c82610501565b9050919050565b61053c81610521565b811461054757600080fd5b50565b60008135905061055981610533565b92915050565b60008060408385031215610576576105756104cb565b5b6000610584858286016104ec565b92505060206105958582860161054a565b9150509250929050565b600080fd5b600080fd5b6000601f19601f8301169050919050565b7f4e487b7100000000000000000000000000000000000000000000000000000000600052604160045260246000fd5b6105f2826105a9565b810181811067ffffffffffffffff82111715610611576106106105ba565b5b80604052505050565b60006106246104c1565b905061063082826105e9565b919050565b600067ffffffffffffffff8211156106505761064f6105ba565b5b610659826105a9565b9050602081019050919050565b82818337600083830152505050565b600061068861068384610635565b61061a565b9050828152602081018484840111156106a4576106a36105a4565b5b6106af848285610666565b509392505050565b600082601f8301126106cc576106cb61059f565b5b81356106dc848260208601610675565b91505092915050565b600080600080608085870312156106ff576106fe6104cb565b5b600085013567ffffffffffffffff81111561071d5761071c6104d0565b5b610729878288016106b7565b945050602085013567ffffffffffffffff81111561074a576107496104d0565b5b610756878288016106b7565b9350506040610767878288016104ec565b9250506060610778878288016104ec565b91505092959194509250565b60006020828403121561079a576107996104cb565b5b60006107a8848285016104ec565b91505092915050565b600081519050919050565b600082825260208201905092915050565b60005b838110156107eb5780820151818401526020810190506107d0565b60008484015250505050565b6000610802826107b1565b61080c81856107bc565b935061081c8185602086016107cd565b610825816105a9565b840191505092915050565b61083981610521565b82525050565b600060a082019050818103600083015261085981886107f7565b9050818103602083015261086d81876107f7565b905061087c6040830186610497565b6108896060830185610497565b6108966080830184610830565b9695505050505050565b7f4e6f74206f776e65720000000000000000000000000000000000000000000000600082015250565b60006108d66009836107bc565b91506108e1826108a0565b602082019050919050565b60006020820190508181036000830152610905816108c9565b9050919050565b7f4e487b7100000000000000000000000000000000000000000000000000000000600052602260045260246000fd5b6000600282049050600182168061095357607f821691505b6020821081036109665761096561090c565b5b50919050565b60008190508160005260206000209050919050565b60006020601f8301049050919050565b600082821b905092915050565b6000600883026109ce7fffffffffffffffffffffffffffffffffffffffffffffffffffffffffffffffff82610991565b6109d88683610991565b95508019841693508086168417925050509392505050565b6000819050919050565b6000610a15610a10610a0b8461048d565b6109f0565b61048d565b9050919050565b6000819050919050565b610a2f836109fa565b610a43610a3b82610a1c565b84845461099e565b825550505050565b600090565b610a58610a4b565b610a63818484610a26565b505050565b5b81811015610a8757610a7c600082610a50565b600181019050610a69565b5050565b601f821115610acc57610a9d8161096c565b610aa684610981565b81016020851015610ab5578190505b610ac9610ac185610981565b830182610a68565b50505b505050565b600082821c905092915050565b6000610aef60001984600802610ad1565b1980831691505092915050565b6000610b088383610ade565b9150826002028217905092915050565b610b21826107b1565b67ffffffffffffffff811115610b3a57610b396105ba565b5b610b44825461093b565b610b4f828285610a8b565b600060209050601f831160018114610b825760008415610b70578287015190505b610b7a8582610afc565b865550610be2565b601f198416610b908661096c565b60005b82811015610bb857848901518255600182019150602085019450602081019050610b93565b86831015610bd55784890151610bd1601f891682610ade565b8355505b6001600288020188555050505b505050505050565b6000604082019050610bff6000830185610497565b8181036020830152610c1181846107f7565b90509392505050565b7f4e487b7100000000000000000000000000000000000000000000000000000000600052601160045260246000fd5b6000610c548261048d565b91507fffffffffffffffffffffffffffffffffffffffffffffffffffffffffffffffff8203610c8657610c85610c1a565b5b60018201905091905056fea26469706673582212205abc6a92de56f7190658cb83f0c2a75d81c0595e45f8bb41b459d888ecde327164736f6c63430008130033",
  "linkReferences": {},
  "deployedLinkReferences": {}
}